:020000020000FC
:108036001020314000103C4000083D403800B0128E
:108046004E82B012E681B0124A820A120A4C0A9394
:108056001124BA90010100000D203E4024003D404D
:1080660000084C43B0127E803C4000089A12020081
:108076009A120E003A4130410E930524CD4C000071
:108086003E531D53F93F3041B2400C000002B2404E
:10809600F0084003B24206028243020230410F4317
:1080A600B0128E80A2C20202B24002A580001E4219
:1080B60004023EF20F4E9293240807200F93F427F2
:1080C600A2C2020282432408EF3F0F93ED23A2D2FD
:1080D600020292432408E83FB0121A81B2D00C0083
:1080E600C000B2400B00C800B240E703C400B24073
:1080F6000500C20092D3C000824330088243320892
:108106008243340830411C4232080C9302248243D5
:10811600320830410A124A436A92062C4F4A0F5FD0
:108126008F4326085A53F83F0E433D4078817C40E2
:1081360005001F4236089F1206007C4005001F42BC
:1081460036089F120A00B2405A8126088243F80078
:108156003A41304192C3F0009253300892533208AC
:10816600B2900A0032080428824332089243340847
:1081760030410A120B12081209120D120C120F12BC
:108186000E121A42FE006A92222C08430943184234
:108196007C00B24005007C001942FC008243FC00D2
:1081A6004F4A0F5F1B4F26080B93072432D20D430D
:1081B6004C4A8B1232C20343033C4A4A824AFA00B3
:1081C6004A4A824AFE008249FC0082487C003E41BF
:1081D6003F413C413D41394138413B413A41001321
:1081E60032C20343A2D282011F4282013FF0FCFF4A
:1081F6001FD3824F82010E433D4036081C431F4267
:1082060036809F1202005C930124FF3F1C42360811
:10821600B0125080B012DE8032D20343B012A48076
:10822600B0120C810C93FC270343FA3F30412183A3
:108236000A4C814A00000D415C43B0123282F93F7C
:1082460030403482304046820D5C033CCC43000013
:088256001C530C9DFB23304179
:02FFFE00388049
:040000030000803841
:00000001FF
